:100000000C9463000C9482000C9482000C94820087
:100010000C9482000C9482000C9482000C94820058
:100020000C9482000C9482000C9482000C94820048
:100030000C9482000C9482000C9482000C94820038
:100040000C9482000C9482000C9482000C94820028
:100050000C9482000C9482000C9482000C94820018
:100060000C9482000C9482000C9482000C94820008
:100070000C9482000C9482000C9482000C948200F8
:100080000C9482000C9482000C94820041542B004A
:1000900041542B574A4F494E0041542B534B435424
:1000A0003D302C312C302C353030300041542B5326
:1000B0004B5354543D25630041542B534B524356EC
:1000C0003D25632C340011241FBECFEFD0E1DEBFED
:1000D000CDBF11E0A0E0B1E0E8EDFEE000E00BBF35
:1000E00002C007900D92A030B107D9F711E0A0E04F
:1000F000B1E001C01D92A030B107E1F70E94840079
:100100000C946A070C940000CF93DF93CDB7DEB751
:10011000C355D0400FB6F894DEBF0FBECDBF9E01D1
:10012000205B3F4FF90191838083CE018E5A9F4F10
:10013000FC01718360838AE390E02AE330E0F901F7
:1001400020812062FC0120838AE390E02AE330E0F2
:10015000F90120812064FC0120838AE390E02AE3F6
:1001600030E0F90120812068FC0120838BE390E0DE
:100170002BE330E0F90120812062FC0120838BE336
:1001800090E02BE330E0F90120812064FC01208322
:100190008BE390E02BE330E0F90120812068FC0143
:1001A00020830E9412020E9426030E944E038BE3CA
:1001B00090E02BE330E0F90120812064FC012083F2
:1001C0008CE890E00E944E02CE0103960E94A002AD
:1001D0008C818F3409F01BC18D818B3409F017C1DC
:1001E00080E990E00E944E02CE0103960E94A00298
:1001F0008C818F3409F000C18D818B3409F0FCC0F3
:1002000089E990E00E944E02CE0103960E94A0026E
:100210008C818F3409F0E6C08D818B3409F0E2C007
:100220008F81992787FD909501969A8389832CEA7F
:1002300030E000D000D000D08DB79EB70196AE015F
:100240004B5C5F4FFC0151834083FC01338322836D
:1002500029813A81FC01358324830E9492048DB761
:100260009EB706960FB6F8949EBF0FBE8DBF28EBC3
:1002700030E000D000D000D08DB79EB70196AE011F
:10028000405C5F4FFC0151834083FC013383228338
:1002900029813A81FC01358324830E9492048DB721
:1002A0009EB706960FB6F8949EBF0FBE8DBFCE01C7
:1002B000C5960E942C02CE0103960E94A002898559
:1002C000823309F064C08BE390E02BE330E0F90166
:1002D00020812068FC0120838BE390E02BE330E059
:1002E000F90120812F7DFC012083CE01805C9F4F8E
:1002F0000E942C02CE0103960E94A0028C818F34B2
:1003000009F06BC08D818B3409F067C08F81803319
:1003100009F463C0CE01835B9F4F9E01225B3F4F78
:10032000B9010E94E302CE01835B9F4FFC018081F3
:10033000863431F4CE01825B9F4F0E94CC034DC0C6
:10034000CE01835B9F4FFC018081823431F4CE016A
:10035000825B9F4F0E94F40340C0CE01835B9F4F9E
:10036000FC0180818C3431F4CE01825B9F4F0E946E
:100370001C0433C0CE01835B9F4FFC01808182351A
:1003800061F5CE01825B9F4F0E94440426C08BE33F
:1003900090E02BE330E0F90120812062FC01208312
:1003A0008BE390E02BE330E0F90120812F77FC0113
:1003B00020838AE490E0FC011182108286E890E0BC
:1003C000FC011182108288E490E0FC01118210820D
:1003D00084E890E0FC01118210828985803309F065
:1003E00066CF14C08BE390E02BE330E0F90120816D
:1003F0002F7BFC0120830AC08BE390E02BE330E0ED
:10040000F90120812F7BFC0120830BC00AC08BE304
:1004100090E02BE330E0F90120812F7BFC01208369
:10042000C6CEC5CECF93DF93CDB7DEB78AE990E0D5
:1004300028E1FC0120838DE990E026E0FC01208387
:1004400088E990E0FC01108289E990E027E6FC0150
:100450002083DF91CF910895CF93DF9300D0CDB764
:10046000DEB79A8389830CC089819A81FC0120813F
:1004700089819A8101969A838983822F0E948602BC
:1004800089819A81FC018081882371F78DE00E9427
:1004900086020F900F90DF91CF9108951F93CF9315
:1004A000DF93CDB7DEB728970FB6F894DEBF0FBE47
:1004B000CDBF98878F8311C08F8198859D838C8352
:1004C0008F819885019698878F838C819D81FC010F
:1004D00014911E838E810E9486028F8198859A8353
:1004E000898389819A81FC0114911B838B818823E4
:1004F00019F78DE00E94860228960FB6F894DEBFA9
:100500000FBECDBFDF91CF911F910895CF93DF93A1
:100510000F92CDB7DEB7898300008BE990E0FC0134
:100520008081882F90E0807290700097B1F38CE901
:1005300090E02981FC0120830F90DF91CF910895F5
:10054000CF93DF9300D000D000D0CDB7DEB79E832D
:100550008D831A8219821C821B8227C000008BE9BE
:1005600090E0FC0180818823D4F789819A812D81D4
:100570003E81820F931F2CE930E0F9012081FC01BC
:10058000208389819A812D813E81820F931FFC01F6
:1005900080818A3029F48B819C8101969C838B8396
:1005A00089819A8101969A8389838B819C8182308B
:1005B0009105A4F226960FB6F894DEBF0FBECDBF0C
:1005C000DF91CF910895CF93DF9300D000D000D07A
:1005D000CDB7DEB79C838B837E836D831A821982AD
:1005E00027C000008BE990E0FC0180818823D4F7CC
:1005F00089819A81009751F48CE990E0FC01808117
:10060000282F8B819C81FC0120830DC089819A81D8
:1006100001972D813E81820F931F2CE930E0F90173
:100620002081FC01208389819A8101969A838983A4
:1006300089819A8183309105A4F226960FB6F894A9
:10064000DEBF0FBECDBFDF91CF910895CF93DF9373
:10065000CDB7DEB78EE490E02CE0FC0120838AE485
:1006600090E020E03AEFFC0131832083000086E532
:1006700090E0FC018081882F90E08071907000975D
:10068000B1F38AE490E0FC011182108286E590E0EB
:1006900020E1FC012083DF91CF910895CF93DF9378
:1006A000CDB7DEB787E390E027E330E0F9012081A2
:1006B0002062FC01208387E390E027E330E0F9012A
:1006C00020812064FC01208382E290E022E230E07D
:1006D000F90120812860FC01208382E290E022E27F
:1006E00030E0F90120812061FC01208388E390E063
:1006F00028E330E0F90120812062FC01208388E3B7
:1007000090E028E330E0F90120812064FC0120839F
:1007100083E290E023E230E0F90120812860FC01CF
:10072000208383E290E023E230E0F9012081206120
:10073000FC01208386E490E02AEF3FEFFC01318347
:1007400020838AE490E0FC011182108288E490E02A
:10075000FC011182108286E890E0FC011182108277
:1007600084E890E0FC01118210828EE490E022E1A6
:10077000FC0120838FE490E020EFFC0120838AE8D5
:1007800090E022E1FC0120838BE890E020EFFC0167
:100790002083DF91CF9108950F931F93CF93DF9321
:1007A00000D0CDB7DEB79A83898388E490E0FC015E
:1007B000118210820AE410E089819A810E946C04FF
:1007C000AC0129E939E1429FC001439F900D529F3E
:1007D000900D1124F801918380830F900F90DF9189
:1007E000CF911F910F9108950F931F93CF93DF9394
:1007F00000D0CDB7DEB79A8389838AE490E0FC010C
:100800001182108208E410E089819A810E946C04B0
:10081000AC0129E939E1429FC001439F900D529FED
:10082000900D1124F801918380830F900F90DF9138
:10083000CF911F910F9108950F931F93CF93DF9343
:1008400000D0CDB7DEB79A83898384E890E0FC01BD
:100850001182108206E810E089819A810E946C045E
:10086000AC0129E939E1429FC001439F900D529F9D
:10087000900D1124F801918380830F900F90DF91E8
:10088000CF911F910F9108950F931F93CF93DF93F3
:1008900000D0CDB7DEB79A83898386E890E0FC016B
:1008A0001182108204E810E089819A810E946C0410
:1008B000AC0129E939E1429FC001439F900D529F4D
:1008C000900D1124F801918380830F900F90DF9198
:1008D000CF911F910F910895FC0188279927E894E3
:1008E00021912032E9F3293010F02E30C8F32B3259
:1008F00041F02D3239F4689404C00E948A04820FBA
:10090000911D219120532A30C0F31EF490958195BA
:100910009F4F08957AE0979F902D879F802D910D8E
:10092000112408950F931F93CF93DF93CDB7DEB7B4
:100930002E970FB6F894DEBF0FBECDBF0D891E896E
:100940008EE08C831A8309838FEF9FE79E838D83CC
:10095000AE01475E5F4FCE0101966F89788D0E9490
:10096000C104EF81F885E00FF11F10822E960FB6BB
:10097000F894DEBF0FBECDBFDF91CF911F910F91D5
:1009800008952F923F924F925F926F927F928F9233
:100990009F92AF92BF92CF92DF92EF92FF920F930E
:1009A0001F93CF93DF93CDB7DEB72D970FB6F89493
:1009B000DEBF0FBECDBF3C017D876C875A01FC01B5
:1009C00017821682838181FFCAC13FE3C32E2E01A5
:1009D0000894411C511CF3019381EC85FD8593FD26
:1009E000859193FF8191FD87EC87882309F4B3C13A
:1009F000853241F493FD859193FF8191FD87EC87CA
:100A0000853229F490E0B3010E94E006E4CFEE24A1
:100A1000DD2410E01032B0F48B3269F08C3228F40F
:100A2000803251F0833271F40BC08D3239F0803353
:100A300049F411602CC01260146029C0186027C0EE
:100A4000106125C017FD2EC0282F20532A3098F49E
:100A500016FF08C08E2D880FE82EEE0CEE0CE80E67
:100A6000E20E15C08D2D880FD82EDD0CDD0CD80EB2
:100A7000D20E10620CC08E3221F416FD6CC11064CF
:100A800006C08C3611F4106802C0883659F4EC8523
:100A9000FD8593FD859193FF8191FD87EC878823E8
:100AA00009F0B8CF982F9554933018F090529330A6
:100AB00030F424E030E0A20EB31EC9820FC08336AA
:100AC00031F0833781F0833509F05AC022C0F50137
:100AD0008081898322E030E0A20EB31E21E0E22E65
:100AE000F12C420114C092E0292E312C2A0C3B1C1F
:100AF000F5018080918016FF03C06E2D70E002C06A
:100B00006FEF7FEFC4010E94D5067C0151011F7772
:100B100015C082E0282E312C2A0C3B1CF501808068
:100B2000918016FF03C06E2D70E002C06FEF7FEF63
:100B3000C4010E94CA067C011068510113FD1CC04B
:100B400006C080E290E0B3010E94E006DA948D2DA9
:100B500090E0E816F906A8F30FC0F40117FD85919F
:100B600017FF81914F0190E0B3010E94E006D11080
:100B7000DA940894E108F108E114F10471F7E8C08F
:100B8000843611F0893659F5F50117FF07C08081C9
:100B90009181A281B38124E030E009C0608171813C
:100BA000CB01AA2797FDA095BA2F22E030E0A20E34
:100BB000B31E012F0F76B7FF08C0B095A095909592
:100BC00081959F4FAF4FBF4F0068BC01CD01A2017F
:100BD0002AE030E00E940C07F82EF4183FC0853759
:100BE00021F41F7E2AE030E020C0197F8F36A9F063
:100BF000803720F4883509F0AEC00BC0803721F073
:100C0000883709F0A8C001C0106114FF09C0146042
:100C100007C014FF08C0166006C028E030E005C019
:100C200020E130E002C020E132E0F50117FF07C00B
:100C3000608171818281938144E050E006C06081CF
:100C4000718180E090E042E050E0A40EB51EA20168
:100C50000E940C07F82EF418012F0F7706FF09C029
:100C60000E7FFE1430F404FF06C002FD04C00F7EA8
:100C700002C01F2D01C01E2D802F90E004FF0CC06C
:100C8000FE01EF0DF11D2081203311F4097E09C012
:100C900002FF06C01E5F05C086789070009709F0BD
:100CA0001F5F802E992403FD12C000FF0DC0EF2CA2
:100CB0001D1550F4ED0CE11A1D2D06C080E290E0E8
:100CC000B3010E94E0061F5F1D15C0F304C01D158F
:100CD00010F4D11A01C0DD2484FE0FC080E390E03F
:100CE000B3010E94E00682FE1FC081FE03C088E5BA
:100CF00090E010C088E790E00DC0C4018678907045
:100D0000009791F081FC02C080E201C08BE207FDF8
:100D10008DE290E0B3010E94E00606C080E390E01F
:100D2000B3010E94E006EA94FE14C0F3FA94F201C3
:100D3000EF0DF11D808190E0B3010E94E006FF20DD
:100D4000A9F706C080E290E0B3010E94E006DA94C1
:100D5000DD20C1F740CEF3018681978102C08FEF7D
:100D60009FEF2D960FB6F894DEBF0FBECDBFDF917B
:100D7000CF911F910F91FF90EF90DF90CF90BF9098
:100D8000AF909F908F907F906F905F904F903F902B
:100D90002F900895FC010590615070400110D8F724
:100DA000809590958E0F9F1F0895FC0161507040B3
:100DB00001900110D8F7809590958E0F9F1F089590
:100DC0000F931F93CF93DF938C01EB018B8181FFF6
:100DD0001BC082FF0DC02E813F818C819D81281711
:100DE000390764F4E881F9810193F983E88306C047
:100DF000E885F985802F0995009731F48E819F81D0
:100E000001969F838E8302C00FEF1FEFC801DF9111
:100E1000CF911F910F910895FA01AA27283051F11F
:100E2000203181F1E8946F936E7F6E5F7F4F8F4F1B
:100E30009F4FAF4FB1E03ED0B4E03CD0670F781F7A
:100E4000891F9A1FA11D680F791F8A1F911DA11D5F
:100E50006A0F711D811D911DA11D20D009F4689498
:100E60003F912AE0269F11243019305D3193DEF640
:100E7000CF010895462F4770405D4193B3E00FD0F6
:100E8000C9F7F6CF462F4F70405D4A3318F0495DE1
:100E900031FD4052419302D0A9F7EACFB4E0A695C4
:100EA0009795879577956795BA95C9F700976105E6
:100EB000710508959B01AC010A2E0694579547953C
:100EC00037952795BA95C9F7620F731F841F951F31
:080ED000A01D0895F894FFCF66
:00000001FF
